:100000000C945C110C9479110C9479110C94791165
:100010000C9418160C9479110C9479110C94791194
:100020000C9479110C94FF150C9479110C9479119E
:100030000C9479110C94DC140C9479110C947911B2
:100040000C9479110C9479110C9479110C94791108
:100050000C9479110C9479110C9479110C947911F8
:100060000C9479110C9479116E616E00696E6600C2
:100070006364696E6F70737578585B656667454633
:100080004700616E006E66696E69747900CDCCCCF4
:100090003D0AD7233C17B7D13877CC2B329595E65C
:1000A000241FB14F0A000020410000C84200401C3C
:1000B0004620BCBE4CCA1B0E5AAEC59D7420B2FF72
:1000C000BF000021A8FFAF219EFFAF2194FF9F2119
:1000D0008AFF8F2180FF8F2176FF7F216CFF6F21A8
:1000E00062FF6F2158FF5F214EFF4F2144FF4F21D8
:1000F0003AFF3F2030FF3FFEE02126FF2F211CFF6B
:100100002F2112FF1F2108FF0F2100FF0F2100FFE9
:100110000F2100FF0F2100FF0F2100FF0F2100FF23
:100120000F2100FF0F2100FF0F2100F8002100ED3B
:100130000F2100E4002100DA002100D0002100C6D8
:10014000002100BC002100A80121009401210080B1
:100150000121006C01210058022100440221003AD3
:1001600002210030022100260221001C022100127F
:1001700003210008022100000021000000210000EE
:1001800000210000002100000021000000210000EB
:1001900000210000002108000021120010211C0095
:1001A000202126002021300030213A003021440057
:1001B0004021580050216C00602180008021940073
:1001C0009021A800A021BC00B021C600C021D00011
:1001D000D021DA00E021E400E021EE00E021F80087
:1001E000F021FF00F021FF00F021FF00F021FF00CF
:1001F000F021FF00F021FF00F021FF00F021FF00BF
:10020000F021FF08F221FF12F321FF1CF221FF264B
:10021000F221FF30F221FF3AF221FF44F221FF5890
:10022000F221FF6CF121FF80F121FF94F121FFA861
:10023000F121FFBCF021FFC6F021FFD0F021FFDA51
:10024000F021FFE4F021FFEDFF21FFF8F021FFFF97
:10025000FF21FFFFFF21FFFFFF21FFFFFF21FFFF26
:10026000FF21FFFFFF21FFFFFF21FFFFFF21F8FF1D
:10027000FF21EEFFEF21E4FFEF21DAFFEF21D0FFB6
:10028000DF21C6FFCF21BCFFBF21A8FFAF2194FF14
:100290009F2180FF8F216CFF6F2158FF5F2144FF5A
:1002A0004F213AFF3F2130FF3F2126FF2F211CFF26
:1002B0002F2012FF1F00002108FF0F2100FF0F2138
:1002C00000FF0F2100FF0F210FF310210FF310216A
:1002D0000FF310210FF310210FF310210FF3102152
:1002E0000FF310210FF310210FF310210FF3102142
:1002F0000FF310210FF310200FF310F800210FF36C
:1003000010210FF310210FF310210FF810210FF817
:1003100010210FF810210FF810200FF81000002105
:100320000FF810210FF810210FF8102111F31F21E1
:1003300012F31F2112F31F2112F31F2012F31FF8D3
:10034000002112F31F2112F31F2113F3102113F3C5
:10035000102114F2AC2115F2BF2116F32D2116F550
:10036000222115F5DB2115F51F2114F52B2113F69C
:10037000102112F7102112F7102112F8102112F893
:10038000102112F8102113F8102114F8102115F87B
:10039000102116F8102116F8102116F8102016F862
:1003A0001000002116F8102116F8102116F810215F
:1003B00019F8102119F8102119F8102119F8102036
:1003C00019F810F8002119F8102119F8102119F660
:1003D000C4211AF497211BF310211BF310211BF3E6
:1003E00010201BF3100000211BF310211BF3102120
:1003F0001BF310211EF320211EF320211EF32021C8
:100400001EF320201EF320F800211EF320211FF3ED
:10041000102120F3C02122F3202122F3202122F3F6
:10042000202122F3202120F4A3211FF510211FF504
:1004300010211FF5122120F5902121F5BE2121F771
:10044000E02121F8712120F86E211EF9D0211DF83C
:1004500044211DF703211DF606201DF61000002182
:100460001DF610211DF54D211DF5AF2121F5AD2102
:1004700021F6D02120F7D32122F58D2123F520214B
:1004800023F32F2124F3202025F2AAF8002127F2BC
:100490008C2128F3442128F4F92129F60A2128F88F
:1004A000332126F9E32125F9352123F8CD2122F73F
:1004B000D42122F5BA2123F4172123F3B42124F205
:1004C000DC2126F2A82027F23C00002128F620217A
:1004D00028F7772127F88A212BF830212BF83021B3
:1004E0002BF830212BF830202BF932F800212BF893
:1004F00038212BF734212BF33F212BF330212BF321
:1005000030212BF330202BF3300000212BF330214E
:100510002BF330212BF330212BF630212BF6302119
:100520002BF630212BF630202BF630F800212BF65D
:1005300030212CF542212DF4C2212FF330212FF34D
:1005400030212FF330202FF3300000212FF3302102
:100550002FF330212FF330212CF540212CF53221BF
:100560002CF542212CF552202CF542F800212CF6D6
:10057000C1212DF66F212EF830212EF830212EF9D1
:10058000E2202EF9D20000212EF86A212EF86721F0
:100590002EF82B212EF826212EF8822158A8512141
:1005A00058A8512158A8512158A8512158A8512183
:1005B00058A8512158A8512158A8512158A8512173
:1005C00058585221585852215858522158585220A0
:1005D0005858520F002158585221585852215858F3
:1005E000522158585221585852215858522158587F
:1005F000522158585221585852215858522158586F
:10060000522158585221585852215858522158585E
:10061000522158585221585852215858522158584E
:10062000522158585221A858A221A858A221A858AE
:10063000A221A858A221A858A221A858A221A858AE
:10064000A221A858A221A858A221A858A221A8589E
:10065000A221A858A221A858A221A858A221A8588E
:10066000A221A858A221A858A221A858A221A8587E
:10067000A221A858A221A858A221A858A221A8586E
:10068000A221A858A221A858A221A8A8A121A8A8BF
:10069000A121A8A8A121A8A8A121A8A8A121A8A812
:1006A000A121A8A8A121A8A8A121A8A8A121A8A802
:1006B000A121A8A8A121A8A8A121A8A8A121A8A8F2
:1006C000A121A8A8A121A8A8A121A8A8A121A8A8E2
:1006D000A121A8A8A121A8A8A121A8A8A121A8A8D2
:1006E000A121A8A8A121A8A8A121A8A8A12158A812
:1006F000512158A8512158A8512158A8512158A832
:10070000512158A8512158A8512158A8512158A821
:10071000512158A8512158A8512158A8512158A811
:10072000512158A8512158A8512158A8512158A801
:10073000512158A8512158A8512158A8512158A8F1
:10074000512158A8512158A8512158A8512158A8E1
:10075000512158585221585852215858522158580E
:1007600052215858522158585220585852000021AE
:10077000585852215858522158585221624A6221E1
:10078000804182219E4AA221B662B221BF80C1214E
:10079000B69EB1219EB6A12180BF802162B66121A3
:1007A0004A9E4121418041214A624220624A6200C0
:1007B000F021804182219E4AA221B662B221BF80EF
:1007C000C121B69EB1219EB6A12180BF802162B613
:1007D00061214A9E4121418041214A624221624A6F
:1007E0006221804182219E4AA220B662B20000218D
:1007F000BF80C121B69EB1219EB6A12180BF8021BC
:100800008041822180418221804182218041822158
:100810008041822180418221804182218041822148
:10082000804182218041822180418220804182FE5C
:10083000E0218041822180418221804182218041CA
:100840008221804182218041822180418221804118
:100850008220804182F000218048822180488221CC
:100860008048822180488220804882FEE0218048A2
:1008700082218048822180488221804882208048CD
:1008800082F00021804E8221804E8221804E822083
:10089000804E82FEE021804E8221804E8221804E59
:1008A0008221804E8220804E82F00021804E822163
:1008B000805482218054822180548220805482FE80
:1008C000E0218054822180548221805482218054EE
:1008D0008221805482218054822080548200002111
:1008E0008054822180548221805482216A1D622199
:1008F0006A1D62216A1D62216A1D62216A1D6221D0
:100900006A1D62216A1D62206A1D62FEE0216A1D65
:1009100062216A1D62216A2062216A2262216A22A2
:1009200062216A2262206A22620000216A22622118
:100930006A2262216A2262218032822180328221EF
:100940008032822180328221803282218032822153
:100950008032822180328220803282FEE021803209
:100960008221803282218035822180378221803726
:1009700082218037822080378200002180378221C7
:1009800080378221803782214B3442214B344221EF
:100990004B3442214B3442214B3442204B3442FEF3
:1009A000E0214B3442214B344221553452215F34F3
:1009B0006221693462207334720000217D34822107
:1009C000833482218D349220973492FEE021A13429
:1009D000A221AB34B221B534B221B534B221B53441
:1009E000B220B534B2000021B534B221B534B22101
:1009F000B534B2214B1A42214B1A42214B1A4221E3
:100A00004B1A42214B1A42214B1A42214B1A4220C7
:100A10004B1A42FEE0214B1A42214B1A42214B1A3B
:100A200042214B1A4220731A720000219B1AA22104
:100A3000AF1AB221B51AB221B51AB221B51AB22134
:100A4000B51AB2214B2442214B2442214B2442218E
:100A50004B2442214B2442214B2442214B2442214E
:100A60004B2442214B2442214B2442214B2442213E
:100A70004B244220732472FEE0219B24A221AF2448
:100A8000B221B524B221B524B221B524B221B524B6
:100A9000B221B524B220B524B2000021B524B22180
:100AA000B524B221B524B22188BF802188BF80211E
:100AB00088BF802188BF802188BF802188BF802196
:100AC00088BF802188BF802188BF802188BF802087
:100AD00088BF80FEE02188BF802188BF802188BF39
:100AE000802178BF702178BF702178BF702178BFD6
:100AF000702078BF7000002178BF702178BF70210E
:100B000078BF702186B8812186B8812186B881217D
:100B100086B8812186B8812086B881FEE02186B81A
:100B2000812186B8812186B881217AB871217AB86D
:100B300071217AB871217AB871207AB871000021D8
:100B40007AB871217AB871217AB8712184B2812181
:100B500084B2812184B2812184B2812184B2812036
:100B600084B281FEE02184B2812184B2812184B2E9
:100B700081217CB271217CB271217CB271217CB265
:100B800071207CB2710000217CB271217CB2712194
:100B90007CB2712182AC802182AC802182AC802128
:100BA00082AC802182AC802082AC80FEE02182ACCD
:100BB000802182AC802182AC80217EAC70217EAC11
:100BC00070217EAC70217EAC70207EAC7000002164
:100BD0007EAC70217EAC70217EAC702162D660212B
:100BE00062D6602162D6602162D6602162D6602121
:100BF00062D6602062D660FEE02162D6602162D6B5
:100C0000602162D6602162D6602162D6602062D601
:100C10006000002162D6602162D6602162D6602128
:100C200071E5702171E5702171E5702171E5702128
:100C300071E5702071E570FEE02171E5702171E5CC
:100C4000702171E5702171E5702071E5700000215F
:100C500071E5702171E5702171E5702180D68021E8
:100C600080D6802180D6802180D6802180D68020A9
:100C700080D680FEE02180D6802180D6802180D65B
:100C8000802080D68000002180D6802180D68021DF
:100C900080D680218FE590218FE590218FE59021EE
:100CA0008FE590218FE590208FE590FEE0218FE584
:100CB00090218FE590208FE5900000218FE5902115
:100CC0008FE590218FE590219ED6A0219ED6A02170
:100CD0009ED6A0219ED6A0219ED6A0209ED6A0FE64
:100CE000E0219ED6A0209ED6A00000219ED6A02165
:100CF0009ED6A0219ED6A021ADE5B021ADE5B021C4
:100D0000ADE5B021ADE5B021ADE5B020ADE5B0FE7B
:100D1000E020ADE5B0000021ADE5B021ADE5B021AA
:100D2000ADE5B021E2F7E021E2F7E021E2F7E021D2
:100D3000E2F7E021E2F7E021E2F7E021E2F7E0214B
:100D4000E2F7E021E2F7E020E2F7E0F80021E2F745
:100D5000E021E2F7E021E2F7E021E2F7E021E2F42E
:100D6000E921E2F1EF21E2F1EF21E2F1EF21E2F1FD
:100D7000EF21E2F1EF20E2F1EF000021E2F1EF21BB
:100D8000E2F1EF21E2F1EF21E5F1EF21E5F1EF21D1
:100D9000E5F1EF21E5F1EF21E5F1EF20E5F1EFF8E5
:100DA0000021E5F1EF21E5F1EF21E5F1EF21E5F19A
:100DB000EF21E5F5E021E5F7E021E5F7E021E5F7B2
:100DC000E021E5F7E021E5F7E021E5F7E021E8F7AC
:100DD000E021E8F7E021E8F7E021E8F7E020E8F794
:100DE000E0000021E8F7E021E8F7E021E8F7E02162
:100DF000EAF7F021EAF7F021EAF7F020EAF7F0F855
:100E00000021EAF7F021EAF7F021EAF7F021EAF50C
:100E1000F021EAF1FF21EAF1FF21EAF1FF21EAF1F5
:100E2000FF21EAF1FF21EAF1FF21ECF1EF21ECF2E1
:100E30008021EBF1EF21EDF29221EDF3F021EDF3C2
:100E4000F021EDF3F021EEF43221EDF6F021EDF694
:100E5000F021EDF6F021EDF6F021ECF7E021ECF7D2
:100E6000E021ECF7E021ECF7E021EAF7F021EAF7E6
:100E7000F021EAF7F021EAF7F020EAF7F00000218C
:100E8000EAF7F021EAF7F021EAF7F021EEF7E021A6
:100E9000EEF7E021EFF7F021EFF7F021EFF7F02088
:100EA000EFF713F80021EFF70321EFF70221EFF737
:100EB0000221F0F46621F1F2C021F1F2B021F1F249
:100EC000B121F1F1BF21F1F2B021F1F1BF21F2F531
:100ED000F021F3F7F021F3F7F021F3F7F021F3F726
:100EE000F020F3F7F0000021F3F7F021F3F7F02101
:100EF000F3F7F021EFF5F021EFF5F021EFF5F02118
:100F0000EFF5F021EFF5F020EFF5F0F80021EFF527
:100F1000F021EFF5F021F2F5F021F2F5F021F2F5F4
:100F2000F021F2F5F020F2F5F0000021F2F5F021C9
:100F3000F3F44721F2F5D021F284F121F284F1217A
:100F4000F284F121F284F121F284F121F284F12181
:100F5000F284F121F284F121F284F121F284F12171
:100F6000F284F121F284F121F284F121F284F12161
:100F7000F284F120F284F1F2F021F284F121F28482
:100F8000F121F284F121F284F121E97BE121E97B75
:100F9000E121E97BE121E97BE121E97BE121E97BB9
:100FA000E121EC7BE121EC7BE121EC7BE121EC7B9D
:100FB000E121EC7BE121F584F121F584F121F58437
:100FC000F121F584F121F584F121F584F121F284F8
:100FD000F121F284F121F284F121F284F120F284F2
:100FE000F1000021F284F121F284F121F284F12157
:100FF000E984E121E984E121E984E121E984E12135
:10100000E984E121E984E120E984E1F2F021E98445
:10101000E121E984E121E984E121F27BF121F27B04
:10102000F121F27BF121F27BF121F27BF121F27BC4
:10103000F121F57BF121F57BF121F57BF121F57BA8
:10104000F121F57BF121EC84E121EC84E121EC84B8
:10105000E121EC84E121EC84E121EC84E121E984CB
:10106000E121E984E121E984E121E984E120E984C5
:10107000E1000021E984E121E984E221EA84AD2153
:10108000808A8121808A8121808A8121808A8121B0
:10109000808A8121808A8121808A8121808A8121A0
:1010A000808A8121808A8121808A8121808A812190
:1010B000808A8121808A8121808A8120808A81FFA3
:1010C0000021808A8121808A812180858121808000
:1010D0008121808081218080812180808120808089
:1010E00081FEE0218080812180808121808081219A
:1010F0008080812180808121808081218080812168
:10110000808081218080812180808120807B81FF7F
:1011100000218076812180768121807681208076F1
:101120008100002180768121807681218076812155
:10113000768071217680712176807121768071218F
:101140007680712176807120768071FF0021768013
:101150007121768071217A8071217E807121808059
:10116000812182808121868081218A8081218A80DB
:1011700081218A8081208A80810000218A808121CA
:101180008A8081218A8081217B0373217B037321E3
:101190007B0373217B0373217B0373217B03732107
:1011A0007B0373217B0373217B0373217B037321F7
:1011B0007B0373217B0373217B0373217B037321E7
:1011C0007B0373207B0373F2F0217B0373217B038A
:1011D00073217B0373217E0373217E0373217E03BE
:1011E00073217E0373217E0373217E0373218207A3
:1011F000822182078221820782218207822182073F
:10120000822182078221820D8321820D8321820D1A
:101210008321820D8321820D8321820D83217F0D05
:1012200083217F0D83217F0D83217F0D83217F0DFE
:1012300083217F0D83217F0782217F0782217F0702
:1012400082217F0782217F0782217F0782218303FA
:1012500083218303832183038321830383218303E6
:1012600083218303832186038321860383218603CD
:1012700083218603832186038321860383218207BA
:1012800082218207822182078221820782218207AE
:101290008221820782217F0782217F0782217F07A7
:1012A00082217F0782217F0782217F0782217B03A2
:1012B00073217B0373217B0373217B0373207B03E7
:1012C000730000217B0373217B0373217B03732154
:1012D00012801121128011211280112112801121FE
:1012E00012801121128011211280112112801121EE
:1012F00012801121128011211280112112801121DE
:1013000012801121128011211280112112801121CD
:101310001280112112801120128011F00021128000
:101320001121128011211C80212126802121308051
:1013300031213A80312141804121488041214F8033
:1013400011215480B12158805121628061216C802B
:10135000612176807121808081218A808121948021
:1013600091219E80A121A880A121AC80A121B880DB
:10137000B121BF80C121C680C121D080D121DA80B6
:10138000E121E280E121E380E121E480E121E480C8
:10139000E121E480E121E480E121E480E121E480B5
:1013A000E121E480E121E17EE121DE7CE121DB7AC3
:1013B000E121DB7AE121DB7AE120DB7AE100002127
:1013C000DB7AE121DB7AE121DB7AE1218080812176
:1013D0004847ED214847ED214847ED214847ED2199
:1013E0004847ED214847ED214847ED214949DA2199
:1013F0004949DA214949DA214949DA214949DA21B9
:101400004949DA214949DA2000FF1F00002100FF85
:101410001F2100FF1F2000FF1FFEE02100FF1F21F2
:1014200000FF1F2100FF1F2100FF1F2100FF1F21C0
:1014300000FF1F2100FF1F2100FF1F2109FF3F2187
:1014400012FF4F211BFF7F2124FFAF212DFFBF2162
:1014500036FFDF2140FF0F2149FF2F2152FF4F218F
:101460005BFF7F2164FF9F216DFFBF2176FFDF219E
:1014700080FF0F2180FF0F2180FF0F2180FF0F21B0
:1014800080FF0F2180FF0F2180FF0F2180FF0F21A0
:1014900080FF0F2176F6DD216DEDBB2164E49821FC
:1014A0005BDB762152D2442149C9222140C0002170
:1014B00036B6DD212DADBB2124A4A9211B9B7721AC
:1014C00012924421098932210080102100801021CC
:1014D0000080102100801021008010210080102148
:1014E00000801021008010210080102100761D2135
:1014F000006D1B2100641921005B1621005214218C
:10150000004912210040102100361D21002D1B2111
:1015100000241921001B1721001214210009122197
:1015200000001021000010210000102100001021F7
:1015300000001021000010210000102100001021E7
:101540000000102109003021120040211B007021F1
:101550002400A0212D00B0213600D0214000002120
:1015600049002021520040215B007021640090213D
:101570006D00B0217600D021800000218000002184
:1015800080000021800000218000002180000021D7
:101590008000002180000021800000218909222193
:1015A000921244219B1B6721A4248921AD2DBB21CC
:1015B000B636DD21C0400021C9492221D252442142
:1015C000DB5B6621E4648921ED6DBB21F676DD21CC
:1015D000FF80E021FF80E021FF80E021FF80E0210B
:1015E000FF80E021FF80E021FF80E021FF80E021FB
:1015F000FF80E021F680D021ED80B021E4808021C1
:10160000DB806021D2804021C9802021C080002160
:10161000B680D021B680D021B680D021B680D0212E
:10162000B680D021B680D021B680D021B680D0211E
:10163000B680D021B676DD21B66DDB21B664D92126
:10164000B65BD621B652D421B649D221B649D221B1
:10165000B649D221B649D221B649D221B649D221C2
:10166000B649D221B649D221B649D221AD49B221DB
:10167000A44982219B496221924942218949222120
:10168000804902217649D2216D49B22164499221D3
:101690005B4972215249422149492221494922216B
:1016A00049492221494922214949222149492221E6
:1016B00049492221494922214949222149522421CB
:1016C000495B262149642921496D2B2149762D2129
:1016D00049802021498020214980202149802021E2
:1016E00049802021498020214980202149802021D2
:1016F00049802021528040215B80702164809021AC
:101700006D80B0217680D0218080002180800021F2
:101710008080002180800021808000218080002145
:101720008080002180800021808000218080002135
:101730008080002189802021928040219B8060212F
:10174000A4808021AD80B021B680D021B680D02188
:10175000B680D021B680D021B680D021B680D021ED
:10176000B680D021B680D021B680D021B689D221D2
:10177000B692D421B69BD721B6A4D921B6ADDB2130
:10178000B6B6DD21B6B6DD21B6B6DD21B6B6DD21B1
:10179000B6B6DD21B6B6DD21B6B6DD21B6B6DD21A1
:1017A000B6B6DD21ADB6BD21A4B68D219BB66D21A7
:1017B00092B64D2189B62D2180B60D2176B6DD2158
:1017C0006DB6BD2164B69D215BB67D2152B64D211B
:1017D00049B62D2149B62D2149B62D2149B62D21D5
:1017E00049B62D2149B62D2149B62D2149B62D21C5
:1017F00049B62D2149AD2B2149A42921499B2721F7
:10180000499224214989222149802021498020218F
:1018100049802021498020214980202149802021A0
:1018200049802021498020214980202140800021B9
:101830003680D0212D80B0212480A0211B807021F2
:101840001280402109803021008010210080102169
:1018500000801021008010210080102100801021C4
:101860000080102100801021008010210989322180
:10187000129244211B9B772124A4A9212DADBB21C9
:1018800036B6DD2140C0002149C9222152D244216F
:101890005BDB762164E498216DEDBB2176F6DD21DA
:1018A00080FF0F2180FF0F2180FF0F2180FF0F217C
:1018B00080FF0F2180FF0F2180FF0F2180FF0F216C
:1018C00080FF0F2189FF2F2192FF4F219BFF6F2166
:1018D000A4FF8F21ADFFBF21B6FFDF21C0FF0F2185
:1018E000C9FF2F21D2FF4F21DBFF6F21E4FF8F21A2
:1018F000EDFFBF21F6FFDF21FFFFEF21FFFFEF210B
:10190000FFFFEF21FFFFEF21FFFFEF21FFFFEF219F
:10191000FFFFEF21FFFFEF21FFFFEF21FFF6ED219A
:10192000FFEDEB21FFE4E821FFDBE621FFD2E4211C
:10193000FFC9E221FFC0E021FFB6ED21FFADEB21A1
:10194000FFA4E921FF9BE721FF92E421FF89E22127
:10195000FF80E021FF80E021FF80E021FF80E02187
:10196000FF80E021FF80E021FF80E021FF80E02177
:10197000FF80E021F676DD21ED6DBB21E464892155
:10198000DB5B6621D2524421C9492221C04000219B
:10199000B636DD21AD2DBB21A42489219B1B6721F7
:1019A0009212442189092221800000218000002117
:1019B00080000021800000218000002180000021A3
:1019C000800000218000002180000021890020216A
:1019D000920040219B006021A4008021AD00B02135
:1019E000B600D021C0000021C9002021D200402132
:1019F000DB006021E4008021ED00B021F600D02161
:101A0000FF00E021FF00E021FF00E021FF00E021D6
:101A1000FF00E021FF00E021FF00E021FF00E021C6
:101A2000FF00E021FF09E221FF12E421FF1BE72173
:101A3000FF24E921FF2DEB21FF36ED21FF40E021BE
:101A4000FF49E221FF52E421FF5BE621FF64E92127
:101A5000FF6DEB21FF76ED21FF80E021FF80E0218B
:101A6000FF80E021FF80E021FF80E021FF80E02176
:101A7000FF80E021FF80E021FF80E021F689D22174
:101A8000ED92B421E49B8721DBA46921D2AD4B21E7
:101A9000C9B62D21C0C00021B6C9D221ADD2B42112
:101AA000A4DB86219BE4682192ED4B2189F62D2150
:101AB00080FF0F2180FF0F2180FF0F2180FF0F216A
:101AC00080FF0F2180FF0F2180FF0F2180FF0F215A
:101AD00080FF0F2180F60D2180ED0B2180E408218D
:101AE00080DB062180D2042180C9022180C0002130
:101AF00080B60D2180AD0B2180A40921809B072198
:101B00008092042180890221808000218080002130
:101B10008080002180800021808000218080002141
:101B20008080002180800021808000218080002131
:101B30008080002180760D21806D0B218064092139
:101B4000805B0621805204218049022180400021CF
:101B500080360D21802D0B2180240921801B072137
:101B600080120421800902218000002180000021D0
:101B700080000021800000218000002180000021E1
:101B80008000002180000021800000217609D22100
:101B90006D12B421641B97215B247921522D4B21B6
:101BA00049362D21404000213649D2212D52B42101
:101BB000245BA6211B647921126D4B2109763D21FE
:101BC0000080102100801021008010210080102151
:101BD0000080102100801021008010210080102141
:101BE000008010210089122100921421009B1721EE
:101BF00000A4192100AD1B2100B61D2100C0102139
:101C000000C9122100D2142100DB162100E41821A2
:101C100000EC1D2100F51B2100FF1F2100FF1F21EB
:101C200000FF1F2000FF1F00002100FF1F2100FFF9
:101C30001F2100FF1F2100FF1F2100FF1F2010F1A7
:101C400000FEE02110F1002110F1002110F100212F
:101C500010F1002110F1002110F1002110F10021FC
:101C600010F1002110F1002110F1002110F10021EC
:101C700010F1002110F1002110F1002110F10021DC
:101C800010F1002110F1002110F1002110F10021CC
:101C900010F1002110F1002110F1002110F10021BC
:101CA00010F1002110F1002110F1002110F10021AC
:101CB00010F1002110F1002110F1002110F100219C
:101CC00010F1002110F1002110F1002110F100218C
:101CD00010F1002110F1002110F1002110F100217C
:101CE00010F1002110F1002110F1002110F100216C
:101CF00010F1002110F1002110F1002110F100215C
:101D000010F1002110F1002110F1002110F100214B
:101D100010F1002110F1002110F1002110F100213B
:101D200010F10021EFF1F021EFF1F021EFF1F021BE
:101D3000EFF1F021EFF1F021EFF1F021EFF1F021DF
:101D4000EFF1F021EFF1F021EFF1F021EFF1F021CF
:101D5000EFF1F021EFF1F021EFF1F021EFF1F021BF
:101D6000EFF1F021EFF1F021EFF1F021EFF1F021AF
:101D7000EFF1F021EFF1F021EFF1F021EFF1F0219F
:101D8000EFF1F021EFF1F021EFF1F021EFF1F0218F
:101D9000EFF1F021EFF1F021EFF1F021EFF1F0217F
:101DA000EFF1F021EFF1F021EFF1F021EFF1F0216F
:101DB000EFF1F021EFF1F021EFF1F021EFF1F0215F
:101DC000EFF1F021EFF1F021EFF1F021EFF1F0214F
:101DD000EFF1F021EFF1F021EFF1F021EFF1F0213F
:101DE000EFF1F021EFF1F021EFF1F021EFF1F0212F
:101DF000EFF1F021EFF1F021EFF1F021EFF1F0211F
:101E0000EFF1F021EFF1F021EFF1F021EFF1F0210E
:101E1000EFF1F021EFF1F021EFF1F021EFF1F021FE
:101E2000EFF1F021EF10FF21EF10FF21EF10FF2164
:101E3000EF10FF21EF10FF21EF10FF21EF10FF2126
:101E4000EF10FF21EF10FF21EF10FF21EF10FF2116
:101E5000EF10FF21EF10FF21EF10FF21EF10FF2106
:101E6000EF10FF21EF10FF21EF10FF21EF10FF21F6
:101E7000EF10FF21EF10FF21EF10FF21EF10FF21E6
:101E8000EF10FF21EF10FF21EF10FF21EF10FF21D6
:101E9000EF10FF21EF10FF21EF10FF21EF10FF21C6
:101EA000EF10FF21EF10FF21EF10FF21EF10FF21B6
:101EB000EF10FF21EF10FF21EF10FF21EF10FF21A6
:101EC000EF10FF21EF10FF21EF10FF21EF10FF2196
:101ED000EF10FF21EF10FF21EF10FF21EF10FF2186
:101EE000EF10FF21EF10FF21EF10FF21EF10FF2176
:101EF000EF10FF21EF10FF21EF10FF21EF10FF2166
:101F0000EF10FF21EF10FF21EF10FF21EF10FF2155
:101F1000EF10FF21EF10FF21EF10FF21EF10FF2145
:101F2000EF10FF2110100F2110100F2110100F21A2
:101F300010100F2110100F2110100F2110100F2161
:101F400010100F2110100F2110100F2110100F2151
:101F500010100F2110100F2110100F2110100F2141
:101F600010100F2110100F2110100F2110100F2131
:101F700010100F2110100F2110100F2110100F2121
:101F800010100F2110100F2110100F2110100F2111
:101F900010100F2110100F2110100F2110100F2101
:101FA00010100F2110100F2110100F2110100F21F1
:101FB00010100F2110100F2110100F2110100F21E1
:101FC00010100F2110100F2110100F2110100F21D1
:101FD00010100F2110100F2110100F2110100F21C1
:101FE00010100F2110100F2110100F2110100F21B1
:101FF00010100F2110100F2110100F2110100F21A1
:1020000010100F2110100F2110100F2110100F2190
:1020100010100F2110100F2110100F2110100F2180
:1020200010100F2110F1002110F1002110F10021FA
:1020300010F1002110F1002110F1002110F1002019
:1020400003D50F00002103D50F2003D50FF0002189
:1020500003D50F210AD5DF2112D5AF211AD57F2153
:1020600022D54F212AD51F2131D5EF2139D5BF21C6
:1020700041D58F2149D55F2151D52F2158D5FF2139
:1020800060D5CF2168D59F2170D56F2178D53F21AC
:1020900080D50F2187D5DF218FD5AF2197D57F211F
:1020A0009FD54F21A7D51F21AED5EF21B6D5BF2192
:1020B000BED58F21C6D55F21CED52F21D5D5FF2105
:1020C000DDD5CF21E5D59F21EDD56F21F5D53F2178
:1020D000FDD50F21FDD50F21FDD50F21FDD50F20F9
:1020E000FDD50F0F0021FDD50F21FDD50F21F5D511
:1020F0003F21EDD56F21E5D59F21DDD5CF21D5D568
:10210000FF21CED52F21C6D55F21BED58F21BED5CB
:102110008F21BED58F21BED58F21BE498521BE49D5
:102120008521BE498521BE498521B649B521AE49E3
:10213000E521A74915219F494521974975218F49D7
:10214000A5218749D5218049052178493521704944
:102150006521684995216049C5215849F5215149B2
:10216000252149495521494955214949552149497F
:10217000552149D55F2149D55F2149D55F2149D5F1
:102180005F2141D58F2139D5BF2131D5EF212AD506
:102190001F2122D54F211AD57F2112D5AF210AD573
:1021A000DF2103D50F2103D50F2003D50F00002118
:1021B00003D50F4F4C5344312E302E3000000040D9
:1021C0007A10F35A00A0724E18090010A5D4E80046
:1021D00000E87648170000E40B54020000CA9A3B5E
:1021E000000000E1F50500008096980000004042E4
:1021F0000F000000A0860100000010270000000072
:10220000E803000000006400000000000A00000075
:1022100000000100000000002C76D888DC674F0821
:1022200023DFC1DFAE59E1B1B796E5E3E453C63A27
:10223000E651997696E8E6C28426EB898C9B62ED9E
:10224000407C6FFCEFBC9C9F40F2BAA56FA5F49058
:10225000055A2AF75C936B6CF9676DC11BFCE0E4CF
:102260000D47FEF520E6B500D0ED902E0300943525
:1022700077050080841E080000204E0A000000C878
:102280000C333333330F986E12831141EF8D2114C9
:10229000893BE65516CFFEE6DB18D1844B381BF799
:1022A0007C1D901DA4BBE424203284725E22810038
:1022B000C9F124ECA1E53D2711241FBECFEFD8E0E2
:1022C000DEBFCDBF11E0A0E0B1E0E4E2F2E402C085
:1022D00005900D92A430B107D9F711E0A4E0B1E068
:1022E00001C01D92AB31B107E1F70E946F130C944E
:1022F00010210C9400006F927F928F929F92AF9268
:10230000BF92CF92DF92EF92FF920F931F93CF93E2
:10231000DF93EC014B016090140170901501B090B7
:10232000040100910D01F0900C01C0900B01A090F0
:102330000F01D0900E012091100130911101609198
:1023400000017091010110910901B0910801A09163
:102350000701E090020140E050E0C7C04F5F5F4FCF
:10236000B49031968B2D8052823008F0C1C09A0112
:102370002F5F3F4F4C0F5D1FFA01C490C9010196BA
:102380002C0F3D1FF901F490AC014F5F5F4F8C0F94
:102390009D1FFC010491F1E2BF1669F0CA0101968C
:1023A0004C0F5D1FFA01D490AC014F5F5F4F8C0F53
:1023B0009D1FFC01A490AD2DA295A695A7708D2D13
:1023C00090E08F70907095958795B82F1A2D129583
:1023D00016951770662061F0812F1A1708F48A2F5E
:1023E000A82F8B1708F4AB2F1A2FBA2F01C00000AB
:1023F000809116018823D9F310921601299A77202B
:1024000079F42F2D30E084E0220F331F8A95E1F715
:102410003067802F82958F7090E0282B392B0EC06B
:102420002C2D30E0F4E0220F331FFA95E1F7802FD6
:1024300090E08F709070282B392B30672A983EBD22
:102440000DB407FEFDCF2EBD0DB407FEFDCF2A9AB9
:102450000000772079F4202F30E02F703070306F3B
:102460008C2D90E0E4E0880F991FEA95E1F7282B86
:10247000392B0EC02F2D30E084E0220F331F8A95B8
:10248000E1F7802F82958F7090E0282B392B306FE9
:102490002A983EBD0DB407FEFDCF2EBD0DB407FE3C
:1024A000FDCF2A9A8A2F8295880F807E9B2F990FC5
:1024B000990F982B93609BB9812F8770886388B997
:1024C0002998FB013197672B39F480E0EE2009F45D
:1024D00081E0E82EE4EFF1E09E2D91709295907FDF
:1024E00088B18F7E892B88B9BF01FE01E40FF51FEB
:1024F0004815590508F432CFB092040100930D013C
:10250000F0920C01C0920B01A0920F01D0920E012B
:102510003093110120931001709301016093000129
:1025200010930901B0930801A0930701E092020102
:10253000DF91CF911F910F91FF90EF90DF90CF909F
:10254000BF90AF909F908F907F906F900895299A41
:102550002A9887E78EBD0DB407FEFDCF8FEF8EBDA5
:102560000DB407FEFDCF2A9A00008FEF97EF9093EE
:102570001101809310012A9887EF8EBD0DB407FEDC
:10258000FDCF8FEF8EBD0DB407FEFDCF2A9A29989F
:1025900083E08BB988E388B908951F93E3EBF1E2F8
:1025A000849110E008C00E940915E12FF0E0ED547D
:1025B000FE4D1F5F84918823B1F71F9108951F93EB
:1025C000109219011092140111E0809119016DE02F
:1025D0000E94C71E892F90E0019686309105D1F1A7
:1025E0008730910594F48330910559F18430910539
:1025F00034F481309105F9F0029739F71FC0843027
:10260000910511F1059709F722C089309105B9F1BB
:102610008A30910534F487309105F9F00897A9F6CE
:1026200025C08B30910509F43EC08B30910584F1B3
:102630000C9759F647C080EE9EE211C080EE9EE2F4
:1026400017C080EE9EE21DC080EE9EE223C080EEA9
:102650009EE22BC00E94A7123FC080E395E70E9434
:10266000A2148DEB90E06AE473E11AC080E395E771
:102670000E94A2148DE39CE162E074E011C080E34B
:1026800095E70E94A21487E094E166E378E008C031
:1026900080E395E70E94A2148FE390E264E771E083
:1026A0000E947B1192CF80E395E70E94A2141093C1
:1026B00015018FE390E264E771E00E947B111092B4
:1026C000150183CF0E94A71290E080911401882306
:1026D00009F491E0909314010E94F61576CF0F93C0
:1026E0001F93CF93DF938FE187B988E388B98CEF8D
:1026F0008AB983E08BB9229A2A9A0E948A14219A75
:10270000299A209A28983C9A449A0E94FE140E9482
:10271000C8140E94A7120E94EC1578940E94CD1252
:10272000289804EF11E028988091C00087FD04C02C
:10273000809119018823C1F32091C60020930A01DA
:1027400080911901882319F00E94DF12ECCF922F9B
:10275000907F909304019032D9F18091C00087FF5F
:10276000FCCF3091C60030930B018091C00087FFF1
:10277000FCCF2091C60020930C018091C00087FF00
:10278000FCCF8091C60080930D018091C00087FF2F
:10279000FCCF8091C60080930E01903141F4D32F7D
:1027A000C0E0CE01820F911D0E94A214BCCF903FC9
:1027B00031F4E0911201F09113010995B4CF903EEC
:1027C00019F40E94CD12AFCF8FE30E940915ABCF51
:1027D0008091C00087FFFCCFE091C600E0930B0121
:1027E0008091C00087FFFCCF3091C60030930C0170
:1027F0008091C00087FFFCCF6091C60060930D01FF
:102800008091C00087FFFCCF8091C60080930E01AD
:10281000289A482F4295469547704093070190E0CB
:102820008F70907095958795582F80930801822F0F
:1028300090E08F70907095958795782F809309011F
:1028400001C00000809116018823D9F3109216016F
:10285000299A232F30E0F4E0220F331FFA95E1F795
:102860003067862F82958F7090E0282B392B2A981D
:102870003EBD0DB407FEFDCF2EBD0DB407FEFDCF4E
:102880002A9A0000262F30E02F703070306F8E2F84
:1028900090E064E0880F991F6A95E1F7282B392BA7
:1028A00030931101209310012A983EBD0DB407FE0C
:1028B000FDCF2EBD0DB407FEFDCF2A9A4295440FE1
:1028C000407E4360550F550F542B5BB9706378B948
:1028D0002998809100019091010101979093010145
:1028E00080930001019661F41093010100930001AF
:1028F00090E080910201882309F491E09093020115
:102900009091020191709295907F88B18F7E892B72
:1029100088B909CF84B1886284B98CB580658CBDD3
:102920008DB581608DBD08958EBD0DB407FEFDCFC0
:1029300008959EBD0DB407FEFDCF8EBD0DB407FEFC
:10294000FDCF089525E78133920718F080E395E7DE
:1029500006C023E0883E920710F488EE93E068EE0C
:1029600073E00E94D31E80E89EE30E94D31E609510
:10297000709560587F4F7093180160931701809194
:102980001701909118019093850080938400089519
:102990000F931F931092800001E810E0F80110825D
:1029A00080EE9EE20E94A21481E080936F00F80105
:1029B00080831F910F9108951F920F920FB60F926F
:1029C00011248F939F9380911701909118019093F8
:1029D00085008093840080911601863018F083E092
:1029E0008BB9439A809116018F5F809316019F9156
:1029F0008F910F900FBE0F901F9018951092C500E9
:102A00001092C40082E08093C00088E18093C100EE
:102A10000895982F8091C00085FFFCCF9093C60049
:102A20000895FC0107C08091C00085FFFCCF909302
:102A3000C600319690819923B1F708958091C00026
:102A400085FFFCCF8DE08093C6008091C00085FF9C
:102A5000FCCF8AE08093C6000895482F6AE00E9468
:102A6000C71E282F0E94C71E392F822F0E94C71E03
:102A70000E94C71E992311F480E008C08091C00015
:102A800085FFFCCF905D9093C60081E0332311F465
:102A9000882339F08091C00085FFFCCF305D3093F2
:102AA000C6008091C00085FFFCCF842F6AE00E94A1
:102AB000C71E905D9093C6000895CF93DF93EC01FD
:102AC0006AE070E00E94D31E9B01CB016AE070E0D7
:102AD0000E94D31EF82FC9016AE070E00E94D31E45
:102AE0009B01CB016AE070E00E94D31EE82FC90170
:102AF0006AE070E00E94D31E9B01CB016AE070E0A7
:102B00000E94D31E482FC9016AE070E00E94D31EC4
:102B1000CB016AE070E00E94D31E982F882341F019
:102B20008091C00085FFFCCF905D9093C60091E03E
:102B3000442311F091E002C0992339F08091C00044
:102B400085FFFCCF405D4093C600EE2311F091E07D
:102B500002C0992339F08091C00085FFFCCFE05D71
:102B6000E093C600FF2311F4992339F08091C0004F
:102B700085FFFCCFF05DF093C6008091C00085FF1B
:102B8000FCCFCE016AE070E00E94D31E805D80938E
:102B9000C600DF91CF9108959C0197FF0AC08091F4
:102BA000C00085FFFCCF8DE28093C6003095219553
:102BB0003F4FC9010E945D1508958091C00087FFB5
:102BC000FCCF8091C600089502C08091C60080911C
:102BD000C00087FDFACF089582E08093680080E20C
:102BE00080936C0084E080936900089590911901AE
:102BF00001C00000809119019817D9F308951F9220
:102C00000F920FB60F9211248F931092B200809101
:102C10001A01815080931A0180911A01882311F4BE
:102C20001092B1008F910F900FBE0F901F901895CA
:102C30001F920F920FB60F9211248F93359918C0DF
:102C400080911A018823A1F48FE080931A011092D9
:102C5000B20081E08093700087E08093B1008091A2
:102C600019018F5F809319018FEF8093C6004498FC
:102C70008F910F900FBE0F901F901895A1E1B0E0BB
:102C8000E4E4F6E10C94E71E3C017F876E876A015D
:102C9000FC0117821682838181FD03C06FEF7FEFF5
:102CA0006FC39E012F5F3F4F398B288BF301238128
:102CB000EE85FF8523FD859123FF8191FF87EE87B8
:102CC000882309F45AC3853251F4EE85FF8523FD2C
:102CD000859123FF8191FF87EE87853229F490E06B
:102CE000B3010E946920E2CF982F10E08824992434
:102CF0001032B0F49B3269F09C3228F4903251F0DB
:102D0000933271F40BC09D3239F0903349F4116065
:102D100028C01260146025C0186023C0106121C053
:102D200017FD2AC0892F80538A3078F416FF06C019
:102D3000FAE09F9E902C1124980E13C03AE0839ED7
:102D4000802C1124880E10620CC09E3221F416FDD6
:102D500014C3106406C09C3611F4106802C0983683
:102D600059F4EE85FF8523FD959123FF9191FF870F
:102D7000EE87992309F0BCCF892F8554833020F446
:102D8000812F8061905E07C0892F8556833008F0BF
:102D90009FC1812F8F7E86FD02C076E0972E6FE364
:102DA000F62EF822953619F4F0E4FF2A07C096367D
:102DB00019F420E8F22A02C091109A94F7FE0AC092
:102DC0003BE3391518F45CE3B52E02C0B92CB3947B
:102DD00027E009C047E0491520F4BB2447E0942EC2
:102DE000F7CF292DBB24C60104969D878C87F60159
:102DF0006081718182819381AE014F5F5F4F0B2DA6
:102E00000E941E1F6C010981202E332400FF04C084
:102E100003FD02C01DE209C0F1FE02C01BE205C0B5
:102E2000F2FC02C010E001C010E2C1018C70907091
:102E3000892BB9F1112311F483E001C084E08815D6
:102E400010F088240AC0881AF3FC07C080E290E0E2
:102E5000B3010E9469208A94C9F7112329F0812FB8
:102E600090E0B3010E94692023FE03C008E610E051
:102E70000EC00CE610E00BC0E114F10409F0805222
:102E800090E0B3010E9469200F5F1F4F05C0EF2C37
:102E9000FF24F0E1EF22FF24F8018491882361F7F9
:102EA00014C1F7FE12C0BC0C24FE04C08A81813319
:102EB00009F4BA941B141CF0BB24B3942DC0F8E0A1
:102EC000FB1550F538E0B32E27C0F6FC25C0892D40
:102ED00090E08C159D054CF02CEFC2162FEFD2061A
:102EE00024F030E8F32A01C09A94992049F0E2E0F6
:102EF000F0E0EC0FFD1FE90DF11D80818033A1F39F
:102F0000F7FE0AC0B92CB394892D90E0C816D906F3
:102F100014F0992401C09C18F7FC03C025E030E0B0
:102F200009C01C141D041CF021E030E003C0960110
:102F30002F5F3F4F112311F02F5F3F4F992029F052
:102F4000892D90E00196280F391F882D90E02817D1
:102F5000390714F0882401C0821A4F2C5524C2016D
:102F600089709070892B39F008C080E290E0B3013D
:102F70000E9469208A948820C1F7112329F0812FAB
:102F800090E0B3010E94692043FE07C008C080E3BF
:102F900090E0B3010E9469208A948820C1F7F7FE6F
:102FA00046C08601D7FE02C000E010E0760108941A
:102FB000E11CF11CE01AF10A41E050E04C0F5D1FEA
:102FC000E40EF51E26014B185108892D90E0AA2425
:102FD000BB24A81AB90A5FEF0F3F150729F48EE248
:102FE00090E0B3010E946920C016D10634F040166B
:102FF00051061CF4F701808101C080E301501040AC
:103000000894E11CF11C0A151B052CF090E0B3019B
:103010000E946920E0CF0C151D0539F49A81963382
:1030200018F4953311F424FE81E390E04BC08A81BB
:10303000813309F00F7E90E0B3010E94692099204E
:10304000A1F08EE290E0B3010E94692012E0E1E07D
:10305000F0E0EC0FFD1FE10FF11D1F5F808190E09C
:10306000B3010E9469209A9491F744FC03C085E65D
:1030700090E002C085E490E0B3010E946920D7FC93
:1030800005C0C114D10441F404FF06C0D094C1941A
:10309000D108D3948DE201C08BE290E0B3010E948D
:1030A000692080E305C08F5F26EF3FEFC20ED31E7D
:1030B0003AE0C316D104BCF790E0B3010E94692046
:1030C000C601C096B3010E946920CC84DD8452C140
:1030D000933631F0933799F0933509F059C023C0F6
:1030E000F601808189835E010894A11CB11C22E055
:1030F00030E0C20ED31E21E0E22EF12C12C0F60108
:10310000A080B18016FD03C06FEF7FEF02C0692D74
:1031100070E022E030E0C20ED31EC5010E941C20E8
:103120007C011F7713C0F601A080B18016FD03C09B
:103130006FEF7FEF02C0692D70E022E030E0C20E39
:10314000D31EC5010E9411207C01106813FF07C027
:103150001BC080E290E0B3010E9469208A94882D10
:1031600090E0E816F906A8F30FC0F50117FD859168
:1031700017FF81915F0190E0B3010E9469208110E7
:103180008A940894E108F108E114F10471F7F2C09F
:10319000943611F0993689F517FF08C0F6012081A1
:1031A00031814281538184E090E00AC0F601808140
:1031B00091819C01442737FD4095542F82E090E097
:1031C000C80ED91E9FE6F92EF12257FF09C050956F
:1031D0004095309521953F4F4F4F5F4F90E8F92A2A
:1031E000CA01B901AE014F5F5F4F2AE030E00E9493
:1031F000AF20E82EE889EE1A41C0953721F41F7EF2
:103200002AE030E01CC0197F9F3661F0903720F42F
:10321000983509F0B2C00FC0903739F0983709F0EF
:10322000ACC004C028E030E00AC0106114FD146096
:1032300020E130E004C014FD166020E132E017FF09
:1032400008C0F601608171818281938144E050E081
:1032500008C0F60180819181BC0180E090E042E0ED
:1032600050E0C40ED51EAE014F5F5F4F0E94AF20ED
:10327000E82E5889E51A8FE7F82EF122F6FE0BC0EA
:103280008EEFF822E91438F4F4FE07C0F2FC05C012
:103290009FEEF92202C01E2D01C0192DF4FE0DC0B3
:1032A000FE01EE0DF11D8081803319F4E9EEFE225E
:1032B00008C01F5FF2FE05C003C08F2D867809F09D
:1032C0001F5F0F2DF3FC14C0F0FE0FC0181510F097
:1032D0009E2C0BC09E2C980C911A182D06C080E2D3
:1032E00090E0B3010E9469201F5F1815C0F304C06D
:1032F000181510F4811A01C0882404FF0FC080E360
:1033000090E0B3010E94692002FF1DC001FD03C0CF
:1033100088E790E00EC088E590E00BC0802F8678AB
:1033200091F001FF02C08BE201C080E2F7FC8DE268
:1033300090E0B3010E94692006C080E390E0B301F1
:103340000E9469209A94E914C0F3EA94E1E0F0E065
:10335000EC0FFD1FEE0DF11D808190E0B3010E9486
:103360006920EE2091F706C080E290E0B3010E9450
:1033700069208A948820C1F799CCF301668177810E
:10338000CB016196E2E10C94031FFC0120FD08C013
:1033900023FD05C022FF02C07383628351834083F3
:1033A0000895EF92FF920F931F9344FF02C033E002
:1033B00011C046FF02C034E00DC0DB01FC01AA0FC2
:1033C000BB1FEE1FFF1F1094D1F76A0F7B1F8E1FCC
:1033D0009F1F31E0660F771F881F991F3150D1F76B
:1033E0007B018C01E20EF11C011D111DA80197014A
:1033F000B701CA011F910F91FF90EF9008950F93AD
:103400001F93CF93DF938C01C8010E942720EC010A
:1034100097FD08C00E94F61F892BB1F7CE01B801B5
:103420000E949520CE01DF91CF911F910F910895B9
:103430008F929F92AF92BF92DF92EF92FF920F9383
:103440001F93CF93DF935C01EB014A01122F0E947F
:103450002720AC018B3219F08D3251F4106821977E
:1034600009F46DC0C5010E942720AC0197FD67C01B
:103470006DEFD62ED1228D2D807301F54033F1F4FE
:10348000219709F447C0C5010E942720AC0197FD90
:1034900041C082E0D82A483711F0483559F480E419
:1034A000D82A2197B9F1C5010E942720AC019923A0
:1034B0002CF430C0D6FC02C080E1D82AEE24FF24D0
:1034C0008701242F2053283088F0D4FC09C02A30EB
:1034D00068F0D6FE05C02F7D822F8151863028F0FE
:1034E000CA01B5010E94952012C02750C801B7013A
:1034F0004D2D0E94D1197B018C0182E0D82A2197A1
:1035000061F0C5010E942720AC0197FFDACFD1FC02
:1035100004C015C0EE24FF248701D7FE08C0109513
:103520000095F094E094E11CF11C011D111DC401F3
:10353000B801A7012D2D0E94C51981E001C080E0CE
:10354000DF91CF911F910F91FF90EF90DF90BF908F
:10355000AF909F908F900895A0E2B0E0E2EBFAE187
:103560000C94EB1E5C016B018A017901FE0131961E
:1035700080E2DF011D928A95E9F770E030E060E0BB
:1035800040E050E03F01A1E0B0E0F5018381F701A8
:1035900083FD259183FF21917F01222309F481C0BE
:1035A0002E3519F44115510569F1872F90E08417E4
:1035B000950744F42D3551F12D3221F4332329F4AC
:1035C00031E021C0332309F4622F322F832F8695F7
:1035D00086958695F301E80FF11D832F87704D01C5
:1035E00002C0880C991C8A95E2F720812829208343
:1035F000361711F430E007C0361710F43F5FE6CFFE
:103600003150E4CF71E04F5F5F4FBFCF332319F0EC
:103610008E8180628E83772359F0FE0131969E0160
:103620002F5D3F4F808180958193E217F307D1F79B
:10363000992493943E010894611C711CC5010E9459
:103640002720AC0197FD25C0869586958695F301C8
:10365000E80FF11D808190E09A012770307002C060
:10366000959587952A95E2F780FD05C0CA01B501B9
:103670000E9495200EC00115110519F0D8014D9337
:103680008D010894C108D1089924C114D104B1F660
:1036900002C0992031F40115110529F0F8011082BA
:1036A00002C0EE24FF24C701A096EEE00C94071F91
:1036B0002F923F925F926F927F928F929F92AF92E2
:1036C000BF92CF92DF92EF92FF920F931F93CF930F
:1036D000DF933C017B011A010E942720EC018B3211
:1036E00039F08D3211F0552411C0B0E85B2E01C0C5
:1036F00055240894E108F108E114F10409F418C113
:10370000C3010E942720EC0197FD12C1CE010E9447
:10371000FE1F8936910521F08E36910599F51DC061
:1037200005E810E01CC00894E108F108E114F10478
:1037300071F0C3010E942720EC0197FD08C00E9490
:10374000FE1FD81661F0CE01B3010E94952020E043
:103750000838120709F0ECC008C002E810E0F801D0
:103760000F5F1F4FD490DD20F1F60558104029F06F
:1037700080E090E0A0E8BFE7CFC080E090E0A0EC60
:10378000BFE7CAC0CC24DD24882499245401AE01AB
:103790004053242F4A3038F552E0552A852D90E0C9
:1037A000AC014870507052FE06C0452B11F50894CC
:1037B000C11CD11C1EC0452B19F00894C108D108AA
:1037C000C501B40140E20E94D1194B015C0188E9B6
:1037D000881689E9980689E9A80689E1B80648F0BB
:1037E00094E0592A06C04E3F81F453FC0EC0E8E035
:1037F0005E2A0894E108F108E114F10431F0C301F4
:103800000E942720EC0197FFC2CF51FE91C0C53620
:1038100019F0C53409F046C00894E108F108E11434
:10382000F10409F485C0C3010E942720EC0197FD33
:103830007FC08B3221F08D3269F4F0E15F2A089469
:10384000E108F108E114F10409F472C0C3010E9417
:103850002720EC01CE01C0970A9708F069C000E06C
:1038600010E0B801882777FD8095982FAE0140536E
:10387000242F40E20E94D1198B010894E108F1083D
:10388000E114F10439F0C3010E942720EC01C09734
:103890000A9738F3B80154FE03C0709561957F4FC5
:1038A000C60ED71EEF2831F0D7FD04C0CE01B301FC
:1038B0000E949520C501B4010E94D61DD7FE0DC0FF
:1038C000A1EAEA2EA0E0FA2ED094C194D108D394B4
:1038D000C0E2D0E000E010E00EC0F9EBEF2EF0E027
:1038E000FF2EF6CFF70125913591459154910E9415
:1038F000131ECC1ADD0ACC16DD06A0F7D695C795A7
:103900000F5F1F4F0630110529F0ECEFFFEFEE0EB1
:10391000FF1EF1CFDC01CB0157FCB058211431045C
:1039200029F0F10180839183A283B38381E001C0F8
:1039300080E0DF91CF911F910F91FF90EF90DF908A
:10394000CF90BF90AF909F908F907F906F905F903F
:103950003F902F900895A0E0B0E0E1EBFCE10C94E3
:10396000EA1E4C015B013A01FC01178216825524C4
:1039700004C1812F90E00E94F61F892B21F0C40121
:103980000E94FF19FAC0153249F4F501F3FC659164
:10399000F3FE61915F01653269F415E2C4010E9492
:1039A000272097FDF6C0181709F4E7C0B4010E945C
:1039B0009520F4C06A3219F0162F00E006C0F3FC1F
:1039C0001591F3FE11915F0101E0CC24DD240EC0BE
:1039D0000260B60180E090E040E20E94D1196B01E4
:1039E000F501F3FC1591F3FE11915F01212F205396
:1039F0002A3070F301FD04C0CC24CA94DC2C04C02E
:103A0000C114D10409F4CAC0183621F01C3699F447
:103A1000F5010BC0F501F3FC6591F3FE6191683689
:103A200019F05F01162F07C008600460F3FC1591C0
:103A3000F3FE11915F01112309F4B0C080E790E01B
:103A4000612F70E00E940620892B09F4A7C0802F07
:103A500000FF03C0EE24FF2407C0F301E080F180E3
:103A600022E030E0620E731E1E3651F4F4014681EE
:103A7000578160E070E0C701202F0E94C5197DC00A
:103A80001336B9F481FD03C081E0C82ED12CC401E6
:103A90000E94272097FD7DC0E114F10419F0F70181
:103AA00081937F010894C108D108C114D10479F72A
:103AB00062C01B3559F4C401B601A70195010E94EB
:103AC000AC1A5C01009709F056C050C0C4010E94B6
:103AD000FF1997FD5EC01F36D1F1103738F4143648
:103AE000A1F11936A9F11835D1F52DC0133751F0D0
:103AF000143718F4103799F526C0153731F11837F7
:103B000071F521C0C4010E942720EC0197FD15C06A
:103B10000E94F61F892B29F0CE01B4010E94952046
:103B20000CC0E114F10419F0F701C1937F0108946E
:103B3000C108D108C114D10429F7E114F104D9F066
:103B4000F701108218C0006403C0006201C0006168
:103B5000C401B601A701202F0E94181A05C0C40194
:103B6000B601A7010E94581B882329F4F401838120
:103B7000807379F413C000FF5394F401F380F501CE
:103B8000F3FC1591F3FE11915F01112309F0F1CEC1
:103B900005C0552019F42FEF3FEF02C0252D30E06E
:103BA000C901CDB7DEB7EFE00C94061FE89409C059
:103BB00097FB3EF490958095709561957F4F8F4F60
:103BC0009F4F9923A9F0F92F96E9BB279395F69576
:103BD000879577956795B795F111F8CFFAF4BB0FF4
:103BE00011F460FF1BC06F5F7F4F8F4F9F4F16C058
:103BF000882311F096E911C0772321F09EE8872FE2
:103C0000762F05C0662371F096E8862F70E060E09D
:103C10002AF09A95660F771F881FDAF7880F969516
:103C2000879597F908950BD078C069D028F06ED0A9
:103C300018F0952309F05AC05FC01124A2C07ED0AD
:103C4000A0F3959FD1F3950F50E0551F629FF001AF
:103C5000729FBB27F00DB11D639FAA27F00DB11D08
:103C6000AA1F649F6627B00DA11D661F829F222791
:103C7000B00DA11D621F739FB00DA11D621F839F18
:103C8000A00D611D221F749F3327A00D611D231FEE
:103C9000849F600D211D822F762F6A2F11249F573C
:103CA00050408AF0E1F088234AF0EE0FFF1FBB1F5F
:103CB000661F771F881F91505040A9F79E3F5105FE
:103CC00070F014C05EC05F3FECF3983EDCF3869565
:103CD00077956795B795F795E7959F5FC1F7FE2BA9
:103CE000880F911D9695879597F9089597F99F6785
:103CF00080E870E060E008959FEF80EC0895002474
:103D00000A941616170618060906089500240A9440
:103D100012161306140605060895092E0394000CC6
:103D200011F4882352F0BB0F40F4BF2B11F460FF55
:103D300004C06F5F7F4F8F4F9F4F089557FD90587E
:103D4000440F551F59F05F3F71F04795880F97FB5F
:103D5000991F61F09F3F79F0879508951216130619
:103D60001406551FF2CF4695F1DF08C01616170648
:103D70001806991FF1CF869571056105089408957D
:103D8000E894BB2766277727CB0197F90895991BFD
:103D900079E004C0991F961708F0961B881F7A9542
:103DA000C9F780950895AA1BBB1B51E107C0AA1F44
:103DB000BB1FA617B70710F0A61BB70B881F991FCC
:103DC0005A95A9F780959095BC01CD0108952F9241
:103DD0003F924F925F926F927F928F929F92AF929B
:103DE000BF92CF92DF92EF92FF920F931F93CF93E8
:103DF000DF93CDB7DEB7CA1BDB0B0FB6F894DEBF7F
:103E00000FBECDBF09942A88398848885F846E84A4
:103E10007D848C849B84AA84B984C884DF80EE80EE
:103E2000FD800C811B81AA81B981CE0FD11D0FB6F7
:103E3000F894DEBF0FBECDBFED010895283008F025
:103E400027E03327DA01990F311D87FD9160009635
:103E50006105710539F432602E5F3D9330E32A9598
:103E6000E1F708959F3F30F080387105610509F052
:103E70003C5F3C5F3D93913008F08068911DDF937B
:103E8000CF931F930F93FF92EF92192F987F9695E0
:103E9000E92F96959695E90FFF27E85EFD4D992746
:103EA0003327EE24FF24A701E70105900894079427
:103EB00028F4360FE71EF81E491F511D660F771FA5
:103EC000881F991F0694A1F70590079428F4E70E20
:103ED000F81E491F561FC11D770F881F991F661FA7
:103EE0000694A1F70590079428F4F80E491F561F71
:103EF000C71FD11D880F991F661F771F0694A1F752
:103F00000590079420F4490F561FC71FD81F990F1B
:103F1000661F771F881F0694A9F784911095177064
:103F200041F0D695C79557954795F794E7941A951C
:103F3000C1F7EEEBF1E2689415901591359165911A
:103F4000959105907FE27395E118F10A430B560BAA
:103F5000C90BD009C0F7E10CF11E431F561FC91F42
:103F6000D01D7EF4703311F48A95E6CFE8940150A9
:103F700030F0080F0AF40027021708F4202F2395C9
:103F8000022F7A3328F079E37D932A95E9F710C060
:103F90007D932A9589F60694979567953795179599
:103FA0001794E118F10A430B560BC90BD00998F08E
:103FB00023957E9173957A3308F070E37C932013F8
:103FC000B8F77E9170617D9330F0839571E37D93B6
:103FD00070E32A95E1F71124EF90FF900F911F9164
:103FE000CF91DF91992787FD90950895911115C183
:103FF000803219F089508550D0F7089591110895B5
:1040000081548A5108F4805E855A0895FC01059018
:10401000061621F00020D9F7C00108953197CF018D
:104020000895FC010590615070400110D8F780950B
:1040300090958E0F9F1F0895FC0161507040019074
:104040000110D8F7809590958E0F9F1F0895CF93FC
:10405000DF93EC014B8140FF1AC046FF0AC04F7B43
:104060004B838E819F8101969F838E838A81282F27
:104070002BC042FF13C0E881F9818081282F3327AC
:1040800027FD30952115310529F440624B832FEF30
:104090003FEF1BC03196F983E88311C0EA85FB85A9
:1040A000CE0109959C0197FF0AC09B812F5F3F4F6E
:1040B00011F080E201C080E1892B8B83E8CF8E81F3
:1040C0009F8101969F838E8330E0C901DF91CF915C
:1040D00008950F931F93CF93DF938C01EB018B8196
:1040E00081FF1BC082FF0DC02E813F818C819D818D
:1040F0002817390764F4E881F9810193F983E8838B
:1041000006C0E885F985802F0995892B31F48E81C9
:104110009F8101969F838E8302C00FEF1FEFC8011E
:10412000DF91CF911F910F9108959C01FB01838135
:1041300080FF11C086FD0FC09FEF2F3F390759F058
:10414000228380648F7D8383868197810197978303
:10415000868330E002C02FEF3FEFC9010895FA01D6
:10416000AA27283051F1203181F1E8946F936E7FB6
:104170006E5F7F4F8F4F9F4FAF4FB1E03ED0B4E0A7
:104180003CD0670F781F891F9A1FA11D680F791FE8
:104190008A1F911DA11D6A0F711D811D911DA11DF9
:1041A00020D009F468943F912AE0269F1124301909
:1041B000305D3193DEF6CF010895462F4770405DA4
:1041C0004193B3E00FD0C9F7F6CF462F4F70405D53
:1041D0004A3318F0495D31FD4052419302D0A9F7AE
:1041E000EACFB4E0A6959795879577956795BA95A8
:1041F000C9F700976105710508959B01AC010A2E6E
:1042000006945795479537952795BA95C9F7620F44
:10421000731F841F951FA01D08959927882708954F
:04422000F894FFCF40
:00000001FF
